:100000000C9411010C943B010C943B010C943B01AA
:100010000C943B010C943B010C943B010C943B0170
:100020000C943B010C943B010C943B010C943B0160
:100030000C943B010C943B010C943B010C943B0150
:100040000C943B010C943B010C9441220C943B0119
:100050000C9446250C947C250C943B010C943B019C
:100060000C943B010C943B010C94691F0C943B01D4
:100070000C94DD250C9413260C943B010C943B014D
:100080000C943B010C943B010C943B0100407A1012
:10009000F35A00A0724E18090010A5D4E80000E839
:1000A0007648170000E40B54020000CA9A3B000097
:1000B00000E1F505000080969800000040420F0026
:1000C0000000A08601000000102700000000E803E7
:1000D000000000006400000000000A0000000000B2
:1000E0000100000000002C76D888DC674F0823DF71
:1000F000C1DFAE59E1B1B796E5E3E453C63AE65144
:10010000997696E8E6C28426EB898C9B62ED407C6A
:100110006FFCEFBC9C9F40F2BAA56FA5F490055A06
:100120002AF75C936B6CF9676DC11BFCE0E40D472B
:10013000FEF520E6B500D0ED902E0300943577054E
:100140000080841E080000204E0A000000C80C3306
:100150003333330F986E12831141EF8D2114893B95
:10016000E65516CFFEE6DB18D1844B381BF77C1D15
:10017000901DA4BBE424203284725E228100C9F168
:1001800024ECA1E53D277C3C3E5E2B3D3F2F5B5D93
:100190003B2C2A225C000000000203000A0B000036
:1001A0000000050409080000000000000000000035
:1001B000000000000000010204081020408001023D
:1001C0000408102040800102040810204080010231
:1001D000040810204080020202020202020204040B
:1001E00004040404040403030303030303030101DD
:1001F0000101010101010000200023002600290067
:1002000000002200250028002B000000210024000F
:1002100027002A008001AC0DE810721EB025472689
:100220008A0111241FBECFEFD0E4DEBFCDBF11E0A5
:10023000A0E0B1E0E0E4F1E600E00BBF02C007900F
:100240000D92AC3EB107D9F726E0ACEEB1E001C0AB
:100250001D92A736B207E1F711E0C0E1D1E004C07A
:100260002197FE010E94492BCA30D107C9F70E948D
:100270003D290C9493300C940000DC01ED91FC912D
:100280000190F081E02D0994982F92959F708F70C6
:100290002AE0929F800D11240895833051F150F48B
:1002A000813081F08230E9F064E670E080E090E037
:1002B0000C94BC22853011F1F8F061E08630A1F792
:1002C00084E10DC061E086E00E94802361E085E06A
:1002D0000E94802385B18E6085B960E084E00C9433
:1002E000BC2361E084E00E94BC2385B1817F85B995
:1002F000089561E08AE1F3CF60E0FCCF60E0E0CFF9
:1003000069E171E081E092E00E945A2783EF91E079
:100310000C948D2081E092E00C94EB26CF93DF9338
:1003200061E570E08CE594E00E94F11D70E060E012
:100330008CE594E00E943D018CE594E00E946F1EE4
:1003400046E050E061E570E08CE594E00E946C1EB0
:100350008CE594E00E944B1D0E9444018093EC01C7
:100360008CE594E00E944B1D8F770E944401D82FAA
:100370008CE594E00E944B1D8F770E944401C82FAA
:100380008CE594E00E944B1D0E94440190E0B0E097
:10039000A0E08093ED019093EE01A093EF01B09364
:1003A000F0018CE594E00E944B1D0E94440124E67C
:1003B000829FC0011124092E000CAA0BBB0B409197
:1003C000ED015091EE016091EF017091F001840F09
:1003D000951FA61FB71F8093ED019093EE01A09388
:1003E000EF01B093F0018CE594E00E944B1D0E9458
:1003F000440140E157E2849F9001859F300D112414
:10040000032E000C440B550B8091ED019091EE01F1
:10041000A091EF01B091F001280F391F4A1F5B1F17
:10042000A0E1BEE00E94522BAB01BC012CE3C29FB5
:10043000C0011124092E000CAA0BBB0B8D0F911DBE
:10044000A11DB11D840F951FA61FB71F8093ED013D
:100450009093EE01A093EF01B093F001DF91CF9163
:1004600008950F931F93CF93DF93C82F65E570E036
:100470008CE594E00E94F11D0C2E000CDD0BBE01FA
:100480008CE594E00E943D018CE594E00E946F1E93
:1004900041E050E065E570E08CE594E00E946C1E60
:1004A0008CE594E00E944B1D8C0165E570E08CE5C5
:1004B00094E00E94F11DBE016F5F7F4F8CE594E0D8
:1004C0000E943D018CE594E00E946F1E41E050E0E7
:1004D00065E570E08CE594E00E946C1E8CE594E08C
:1004E0000E944B1D20E0382FC901800F911FDF9122
:1004F000CF911F910F9108950F931F93CF93DF9387
:10050000CDB7DEB7A1970FB6F894DEBF0FBECDBF53
:1005100061E081E00E94802361E082E00E9480230C
:1005200061E083E00E94802361E08AE10E948023F1
:1005300061E084E10E94802361E084E00E948023E6
:1005400061E085E00E94802361E086E00E948023D4
:1005500061E087E00E94802361E080E00E948023C8
:1005600082E00E944D0184E00E944D0186E00E94DD
:100570004D0140EA56E861E070E08CE594E00E94AD
:10058000D41D26E040E056E960E070E089E295E0A5
:100590000E94E42426E040E056E960E070E086EC4A
:1005A00095E00E94E42466E271E089E295E00E9411
:1005B000D4268091060120E4829FC001112480612D
:1005C00080937C0080917A00846080937A0080918F
:1005D0007A00826080937A0080917A0081608093B3
:1005E0007A0061E087E10E94802360E087E10E9459
:1005F000BC2360E080E00E94BC2305E010E062E3E1
:1006000070E080E090E00E94BC2261E087E10E94FF
:10061000BC2362E370E080E090E00E94BC2260E0D6
:1006200087E10E94BC230150110949F761E570E0A0
:100630008CE594E00E94F11D63E28CE594E00E9459
:100640006E1D60E08CE594E00E946E1D60E08CE51C
:1006500094E00E946E1D65E08CE594E00E946E1DA2
:1006600060E08CE594E00E946E1D60E08CE594E013
:100670000E946E1D67E98CE594E00E946E1D60E0AB
:100680008CE594E00E946E1D60E08CE594E00E9491
:100690006E1D8CE594E00E946F1E61E570E08CE5B4
:1006A00094E00E94F11D6FE270E08CE594E00E94FE
:1006B0003D016CE270E08CE594E00E943D018CE528
:1006C00094E00E946F1E61E570E08CE594E00E946A
:1006D000F11D68E270E08CE594E00E943D0167E95D
:1006E00070E08CE594E00E943D018CE594E00E946E
:1006F0006F1E61E570E08CE594E00E94F11D60E002
:100700008CE594E00E946E1D60E08CE594E00E9410
:100710006E1D60E08CE594E00E946E1D60E08CE54B
:1007200094E00E946E1D60E08CE594E00E946E1DD6
:1007300060E08CE594E00E946E1D60E08CE594E042
:100740000E946E1D8CE594E00E946F1E6FE271E0C6
:10075000CE0101960E945A2761E072E0CE01019617
:100760000E940F2968E371E00E942229BC01CE019A
:100770004C960E944228CE0101960E94EB2681E110
:100780000E94EA23892B09F47CC068E570E08CE5BF
:1007900094E00E94F11D68E070E08CE594E00E9416
:1007A0003D0170E060E08CE594E00E943D018CE545
:1007B00094E00E946F1E40E168E58CE594E00E94A1
:1007C000691E10E18CE594E00E944B1D082F8031DA
:1007D00030F46CE371E0CE014C960E94ED2840E1CC
:1007E000602FCE0101960E947927BE016F5F7F4F77
:1007F000CE014C960E94E628CE0101960E94EB267F
:100800008091FB019091FC01A091FD01B091FE014E
:10081000800F911DA11DB11D8093FB019093FC01E0
:10082000A093FD01B093FE01115061F66EE371E0FB
:1008300089E295E00E94D42681E00E944D0164E6A1
:1008400070E080E090E00E94BC2264E087E092E0EB
:100850000E94190C81111CC067E471E089E295E0E7
:100860000E94D426CE014C960E94EB26A1960FB68C
:10087000F894DEBF0FBECDBFDF91CF911F910F91D6
:1008800008956CE871E0CE014C960E94ED28CECF21
:1008900027E143E751E067E072E0CE0101960E9454
:1008A000350DCE0101960E94F30B882311F1BE0194
:1008B000645E7F4FCE0101960E94C226CE01019652
:1008C0000E94E10B61E087E10E94BC23BE01645EEF
:1008D0007F4F89E295E00E94C22660E087E10E9496
:1008E000BC2382E00E944D011092F2011092F101AE
:1008F000B9CF64E671E089E295E00E94D426F1CF99
:100900003F924F925F926F927F928F929F92AF929F
:10091000BF92CF92DF92EF92FF920F931F93CF93EC
:10092000DF93CDB7DEB7CB50DC400FB6F894DEBF17
:100930000FBECDBF6AEE71E0CE018F52984F0E947C
:100940005A2781E10E94EA23892B09F4AFC10E9452
:100950008E016FE771E0CE018F52984F0E94ED2813
:100960006091FF01709100024AE0CE0101960E9461
:10097000D227BE016F5F7F4FCE018F52984F0E94EA
:10098000E628CE0101960E94EB266AE371E0CE01D3
:100990008F52984F0E94ED284091ED015091EE0149
:1009A0006091EF017091F0012AE0CE0101960E9462
:1009B000FE27BE016F5F7F4FCE018F52984F0E947E
:1009C000E628CE0101960E94EB266DE271E0CE0191
:1009D0008F52984F0E94ED284AE06091EC01CE01C1
:1009E00001960E947927BE016F5F7F4FCE018F5223
:1009F000984F0E94E628CE0101960E94EB266AE3FA
:100A000071E0CE018F52984F0E94ED286CE574E0A2
:100A100083EF91E00E94E52068E871E0882309F403
:100A200047C183EF91E00E941621AB01BC0122E097
:100A3000CE0101960E945A28BE016F5F7F4FCE0102
:100A40008F52984F0E94E628CE0101960E94EB2615
:100A50006AE371E0CE018F52984F0E94ED2883EF38
:100A600091E00E94AD21AB01BC0122E0CE010196D4
:100A70000E945A28BE016F5F7F4FCE018F52984F60
:100A80000E94E628CE0101960E94EB2688E00E9493
:100A900031028C018AE00E9431027C016AE371E03C
:100AA000CE018F52984F0E94ED28B801110F880B8C
:100AB000990B0E942E2A20E030E04AE754E40E947D
:100AC000BA29AB01BC0122E0CE0101960E945A284E
:100AD000BE016F5F7F4FCE018F52984F0E94E62874
:100AE000CE0101960E94EB266AE371E0CE018F529F
:100AF000984F0E94ED284AE0B701CE0101960E946E
:100B0000A627BE016F5F7F4FCE018F52984F0E9484
:100B1000E628CE0101960E94EB266AE371E0CE0141
:100B20008F52984F0E94ED2884E00E9431024AE0E3
:100B3000BC01CE0101960E94A627BE016F5F7F4FC8
:100B4000CE018F52984F0E94E628CE0101960E9456
:100B5000EB266AE371E0CE018F52984F0E94ED2898
:100B600086E00E9431024AE0BC01CE0101960E945B
:100B7000A627BE016F5F7F4FCE018F52984F0E9414
:100B8000E628CE0101960E94EB266AE371E0CE01D1
:100B90008F52984F0E94ED288CE00E943102BC01D8
:100BA000990F880B990B0E942E2A2DEC3CEC4CECF3
:100BB0005DE30E94BA2A23E333E948E853E40E9444
:100BC0004D29AB01BC0122E0CE0101960E948A288A
:100BD000BE016F5F7F4FCE018F52984F0E94E62873
:100BE000CE0101960E94EB266AE371E0CE018F529E
:100BF000984F0E94ED286091F1017091F2014AE056
:100C0000CE0101960E94D227BE016F5F7F4FCE01B9
:100C10008F52984F0E94E628CE0101960E94EB2643
:100C20001092F2011092F101BE016F52784F89E2E9
:100C300095E00E94C226CE018F52984F0E94EB266B
:100C400083E00E944D0164E670E080E090E00E9445
:100C5000BC226AEE71E0CE018F52984F0E945A2753
:100C60008EE0EBE0F1E0DE01119601900D928A95A5
:100C7000E1F78E010F5F1F4F7E012FE0E20EF11CA6
:100C8000F80161918F0186EC95E00E949D24E016A9
:100C9000F106B1F786EC95E00E9413248C01892BB4
:100CA00069F086EC95E00E942D24F4CF60E971E0B4
:100CB000CE018F52984F0E94ED28E8CEB12CA12C86
:100CC000C12CD12C7601912C86EC95E00E94132446
:100CD000892B09F4A6C086EC95E00E942D2484326D
:100CE00019F4FFEFAF1ABF0A29E5A21622E0B206F7
:100CF0000CF489C06AEE71E0CE018F52984F0E94C9
:100D00004B28C12CD12C7601B12C86EC95E00E94A9
:100D10001324892B09F4AAC086EC95E00E942D24A7
:100D2000843209F08DC00F5F1F4F053111050CF49F
:100D300091C00E948E0167E971E0CE018F52984FF9
:100D40000E94ED284091ED015091EE016091EF017C
:100D50007091F0012AE0CE0101960E94FE27BE01AB
:100D60006F5F7F4FCE018F52984F0E94E628CE01D1
:100D700001960E94EB266DE271E0CE018F52984FF2
:100D80000E94ED284AE06091EC01CE0101960E949C
:100D90007927BE016F5F7F4FCE018F52984F0E941F
:100DA000E628CE0101960E94EB2681E00E944D01CB
:100DB00064E087E092E00E94190C811166C067E44C
:100DC00071E089E295E00E94D426CE018F52984FBF
:100DD0000E94EB26C55FD34F0FB6F894DEBF0FBE5F
:100DE000CDBFDF91CF911F910F91FF90EF90DF90DA
:100DF000CF90BF90AF909F908F907F906F905F90BB
:100E00004F903F900895992019F08A3209F472CFDB
:100E100099249394813409F0912CC12CD12C760122
:100E200053CF3FEFC31AD30AE30AF30A81E6C81689
:100E30008EEAD8068AE0E806F10408F445CF5ACFD6
:100E4000053111050CF075CFC12CD12C7601BB20DA
:100E500009F45BCF682FCE018F52984F0E94FC2877
:100E6000C12CD12C7601BB24B3944FCF9FEFC91A6C
:100E7000D90AE90AF90AE1E6CE16EEEADE06EAE068
:100E8000EE06F10408F441CF90CF27E143E751E0AB
:100E900067E072E0CE0101960E94350DCE01019609
:100EA0000E94F30B882309F441C261E087E10E94AC
:100EB000BC23BE016F52784FCE0101960E94C2261C
:100EC00060E087E10E94BC23CE0101960E94E10B05
:100ED00082E00E944D01BE016F52784F89E295E099
:100EE0000E94C226CE018F52984F0E94EB265CE8EA
:100EF000C52E5AE0D52E332433946FE9B62E7EE901
:100F0000A72E35B8809106018295880F880F807CC6
:100F100080937C00B4B882E090E00E94F522A4B8EF
:100F200088E090E00E94F5227E01F7E4EF1AF4EFEA
:100F3000FF0AC701C2964701F401119211924F01B5
:100F4000E817F907C9F7412C512C320110E000E0F5
:100F500080917A00806480937A0084E190E00E941E
:100F6000F522B4B882E090E00E94F522A4B8809106
:100F70007A0084FFFCCF809178008093FA01809101
:100F800079008093F90180917A00806180937A00E2
:100F90009091F9018091FA019093F8018093F70103
:100FA0008931910508F0C9C1880F991FF701E80F31
:100FB000F91F808191810196918380833FEF431ACD
:100FC000530A630A730A80EA481686E8580681E0E5
:100FD0006806710409F0BCCF6AEE71E0CE018A5F49
:100FE000934F0E945A2781E10E94EA23892B09F43A
:100FF000C5C10E948E016EE971E0CE018A5F934FF8
:101000000E94ED286091FF01709100024AE0CE013C
:101010008551944F0E94D227BE016551744FCE0175
:101020008A5F934F0E94E628CE018551944F0E941B
:10103000EB266AE371E0CE018A5F934F0E94ED28B0
:101040004091ED015091EE016091EF017091F0013E
:101050002AE0CE018551944F0E94FE27BE016551C2
:10106000744FCE018A5F934F0E94E628CE018551CE
:10107000944F0E94EB266DE271E0CE018A5F934FA0
:101080000E94ED284AE06091EC01CE018551944F19
:101090000E947927BE016551744FCE018A5F934F3C
:1010A0000E94E628CE018551944F0E94EB266AE308
:1010B00071E0CE018A5F934F0E94ED286CE574E0E9
:1010C00083EF91E00E94E52068E871E0882309F44D
:1010D00057C183EF91E00E941621AB01BC0122E0D1
:1010E000CE018551944F0E945A28BE016551744F1C
:1010F000CE018A5F934F0E94E628CE018551944F1E
:101100000E94EB266AE371E0CE018A5F934F0E9452
:10111000ED2883EF91E00E94AD21AB01BC0122E0FC
:10112000CE018551944F0E945A28BE016551744FDB
:10113000CE018A5F934F0E94E628CE018551944FDD
:101140000E94EB266AE371E0CE018A5F934F0E9412
:10115000ED2888E00E943102BC01990F880B990BA1
:101160000E942E2A20E030E04AE754E40E94BA2987
:10117000AB01BC0122E0CE018551944F0E945A2858
:10118000BE016551744FCE018A5F934F0E94E628DD
:10119000CE018551944F0E94EB266AE371E0CE01A7
:1011A0008A5F934F0E94ED288AE00E9431024AE054
:1011B000BC01CE018551944F0E94A627BE01655106
:1011C000744FCE018A5F934F0E94E628CE0185516D
:1011D000944F0E94EB266AE371E0CE018A5F934F41
:1011E0000E94ED2884E00E9431024AE0BC01CE0159
:1011F0008551944F0E94A627BE016551744FCE01C0
:101200008A5F934F0E94E628CE018551944F0E9439
:10121000EB266AE371E0CE018A5F934F0E94ED28CE
:1012200086E00E9431024AE0BC01CE018551944F14
:101230000E94A627BE016551744FCE018A5F934F6D
:101240000E94E628CE018551944F0E94EB266AE366
:1012500071E0CE018A5F934F0E94ED288CE00E94DE
:101260003102BC01990F880B990B0E942E2A2DEC9C
:101270003CEC4CEC5DE30E94BA2A23E333E948E8F6
:1012800053E40E944D29AB01BC0122E0CE018551FF
:10129000944F0E948A28BE016551744FCE018A5F27
:1012A000934F0E94E628CE018551944F0E94EB2671
:1012B0006AE371E0CE018A5F934F0E94ED28F70147
:1012C000619171917F014AE0CE018551944F0E9456
:1012D000D227BE016551744FCE018A5F934F0E94A1
:1012E000E628CE018551944F0E94EB268E149F0470
:1012F000F9F68091FF01909100020196909300020F
:101300008093FF0181E00E944D0164E087E092E05C
:101310000E94190C81113AC067E471E089E295E0FE
:101320000E94D426CE018A5F934F52CD64E671E0CD
:1013300089E295E00E94D426CBCD043FF1E01F075F
:10134000D0F4F801EE0FFF1FEE0FFF1F21E030E099
:101350002C0F3D1FE20FF31F408251826282738285
:10136000F801EE0FFF1F21ED37E02C0F3D1FE20FBC
:10137000F31F918380830F5F1F4F20CE60E971E0E0
:10138000CE018A5F934F0E94ED28DCCE27E143E730
:1013900051E067E072E0CE018551944F0E94350D17
:1013A000CE018551944F0E94F30B882309F495C018
:1013B000BE016A5F734FCE018551944F0E94C226D1
:1013C000CE018551944F0E94E10B82E00E944D01B5
:1013D00061E087E10E94BC23BE016A5F734F89E22E
:1013E00095E00E94C22660E087E10E94BC23CE0106
:1013F0008A5F934F0E94EB2665EA71E0CE018A5F17
:10140000934F0E945A274AE0B801CE018551944F6C
:101410000E94D227BE016551744FCE018A5F934F5F
:101420000E94E628CE018551944F0E94EB26053F8D
:10143000F1E01F0710F004EF11E09E012F5F3F4F16
:101440003901CE018F52984F4C01F12CE12CE0165E
:10145000F10609F449C06AE371E0CE018A5F934F57
:101460000E94ED28F30141915191619171913F01E9
:101470002AE0CE018551944F0E94FE27BE0165519E
:10148000744FCE018A5F934F0E94E628CE018551AA
:10149000944F0E94EB266AE371E0CE018A5F934F7E
:1014A0000E94ED28F401619171914F014AE0CE0153
:1014B0008551944F0E94D227BE016551744FCE01D1
:1014C0008A5F934F0E94E628CE018551944F0E9477
:1014D000EB26FFEFEF1AFF0ABACF64E671E089E26C
:1014E00095E00E94D42671CF81E00E944D0164E016
:1014F00087E092E00E94190C882309F40DCF27E1C0
:1015000043E751E067E072E0CE018551944F0E94BD
:10151000350DCE018551944F0E94F30B882351F174
:10152000BE016A5F734FCE018551944F0E94C2265F
:10153000CE018551944F0E94E10B82E00E944D0143
:1015400061E087E10E94BC23BE016A5F734F89E2BC
:1015500095E00E94C22660E087E10E94BC23CE0194
:101560008A5F934F0E94EB2621E0C21AD10809F04E
:10157000C8CC30CC64E671E089E295E00E94D426C4
:10158000DCCFCF93DF931F92CDB7DEB76983DC0149
:10159000ED91FC910280F381E02D41E050E0BE012D
:1015A0006F5F7F4F09950F90DF91CF910895CF9393
:1015B000DF93EC01E98DFA8D309749F481E090E0FA
:1015C0009B838A8390E080E0DF91CF91089513821E
:1015D0001282898D9A8D0E948016E98DFA8D228162
:1015E0003381232B59F7F0CFFC01818D928D009729
:1015F00011F00C94361890E080E00895FC01818D84
:10160000928D009719F061E00C9400140895CF9327
:10161000DF931F92CDB7DEB741E050E0BE016F5FB0
:101620007F4F0E942412019731F4898190E00F903E
:10163000DF91CF9108958FEF9FEFF9CFFC01818D5E
:10164000928D009711F00C94070B8FEF9FEF089588
:101650000F931F93CF93DF93EC01898D9A8D10E048
:1016600000E0009799F00E94070B8C010F3F1007D4
:1016700069F0898D9A8DFC01428553856485758555
:1016800041505109610971090E946C13C801DF9131
:10169000CF911F910F910895EF92FF920F931F9397
:1016A000CF93DF93EC017B018A011B821A8288EEC3
:1016B00093E0A0E0B0E08C839D83AE83BF8380EB9A
:1016C00091E0998388838DE190E00E948A2B9A8F24
:1016D000898F009779F02DE1F701DC0101900D92DF
:1016E0002A95E1F74CE050E0B801CE010C960E943B
:1016F000B82D188EDF91CF911F910F91FF90EF9031
:101700000895FC011382128288EE93E0A0E0B0E01D
:1017100084839583A683B78380EB91E09183808354
:10172000128E118E14860895DC015996ED91FC916C
:10173000309729F0628573858485958508956FEFCC
:101740007FEFCB010895DC015996ED91FC91309724
:1017500029F06389748985899689089560E070E02D
:10176000CB010895CF92DF92EF92FF92CF93DF9358
:10177000FC01218D328D232B09F1EC010E94A30B7A
:101780006B017C01CE010E94940BA7019601261BE0
:10179000370B480B590BDA01C901811530E8930763
:1017A000A105B10520F08FEF9FE7A0E0B0E0DF9149
:1017B000CF91FF90EF90DF90CF90089590E080E080
:1017C000F6CFCF93DF93EC01898D9A8D009741F08E
:1017D0000E945514898D9A8D0E94262C1A8E198E7E
:1017E000DF91CF910895DC015996ED91FC913097EE
:1017F00021F081E09581911101C080E008950F935F
:101800001F93CF93DF93EC018B0141E00E94241CD6
:10181000811109C040E0B801CE01DF91CF911F9145
:101820000F910C94241C81E0DF91CF911F910F91B7
:1018300008950F931F93CF93DF93EC01162F8FA57D
:10184000882321F0CE018A960E945514412F61E031
:10185000CE010E94CE0E811102C090E011C08E0117
:10186000045F1F4FBE01C8010E94FF0B8823A9F32C
:10187000B801CE018A960E94D41191E0882369F3C1
:10188000892FDF91CF911F910F910895FC01DB010A
:1018900012968D919C9113979383828384EC91E0AF
:1018A0009183808314968C911497848315968C91E0
:1018B0001597858316964D915D916D917C91199741
:1018C00046835783608771871A964D915D916D911C
:1018D0007C911D9742875387648775871E964D912B
:1018E0005D916D917C91519746875787608B718B85
:1018F00052968C915297828B53964D915D916D913A
:101900007C915697438B548B658B768B57964D9174
:101910005D916D917C915A97478B508F618F728F3B
:101920005B968D919C91948F838F08954F925F92D7
:101930006F927F928F929F92AF92BF92CF92DF92DF
:10194000EF92FF920F931F93CF93DF93CDB7DEB744
:10195000C754D1090FB6F894DEBF0FBECDBF5C01EE
:101960004A01390119A218A284EC91E09F8F8E8F51
:101970001BA21C821B829A8389831E82645F7F4F15
:101980007E018EE1E80EF11CC7010E94D411840192
:10199000FE0131966F015E2C4F2C6FE270E0C801A2
:1019A0000E94A62D009709F455C0F80120812F321E
:1019B00019F40F5F1F4FF1CF801B8D3008F08CE0C2
:1019C000E82EF12CA701B801CE01CB960E94B82DCC
:1019D000EBE3F0E0EC0FFD1FEE0DFF1D1082C601E2
:1019E0000E94551421E0AE01455C5F4F652D742DBA
:1019F000C6010E949215811121C0F5011382128245
:101A000084EC91E0918380831582C501C95BDF4F2F
:101A10000FB6F894DEBF0FBECDBFDF91CF911F91FF
:101A20000F91FF90EF90DF90CF90BF90AF909F907D
:101A30008F907F906F905F904F9008950E0D1F1DB7
:101A4000852D942D0E945514C2015C2C4D2CC92E5D
:101A5000D82EA3CF08191909F30111830083652D2E
:101A6000742DC5010E94460CD0CFCF92DF92FF9219
:101A70000F931F93CF93DF93CDB7DEB7C955D1092D
:101A80000FB6F894DEBF0FBECDBF6C018A01F22EF7
:101A90009E01285A3F4FCE01CB960E94960C6A9623
:101AA0008EAD9FAD6A97080F191FF80180818111D3
:101AB00010C0BE01655C7F4FCE0101960E94460CAE
:101AC0004EEB51E0BE016F5F7F4FC6010E944C0B91
:101AD0000FC019A218A284EC91E09F8F8E8F1BA2D9
:101AE00021968FAD2197811113C0C6010E94810BF1
:101AF000C601C75ADF4F0FB6F894DEBF0FBECDBF89
:101B0000DF91CF911F910F91FF90DF90CF900895BB
:101B10002F2DA801BE01655C7F4FCE014E960E941D
:101B20009215882311F3CE01CB960E9455148F2D68
:101B30008670863041F449A95AA96BA97CA9CE01C7
:101B40004E960E946C13BE01625E7F4FCE010196DD
:101B50000E94460CA801B6CFE7E0F2E0158216829B
:101B60001186138682E090E0A0E0B0E0848795873C
:101B7000A687B78713A215A614A684EC91E093A7B5
:101B800082A717A608959FB7F89420911E0580910B
:101B90001C05213019F48DBB9FBF08958FBF089598
:101BA00020911E05222381F03FB7F89420911E0555
:101BB000213069F42DB320931C054DB320911D05F0
:101BC000209524232DBB3FBF8CBD9DBD0895309330
:101BD0001C05FACF8EBD00000DB407FEFDCF8EB5FB
:101BE00008958FEF0C94EA0D61E0FC0184810E945E
:101BF000BC2380915002882339F0109250028091CA
:101C00001E0581110C94C30D0895CF93DF93EC0151
:101C100080915002811109C081E08093500280912F
:101C20005102909152020E94D00D60E08C81DF91B0
:101C3000CF910C94BC23CF93DF93EC018E8188234A
:101C400089F08F8198859C012F5F3F4F38872F83C4
:101C50008230924018F40E94F10DF3CFCE010E9421
:101C6000F40D1E82DF91CF910895673030F026E1A8
:101C7000FC01258360E0862F0895623011F130F475
:101C8000662389F06130B9F083E508C06430D9F08B
:101C900081E5643018F082E56530B1F78093510238
:101CA0001092520206C080E58093510281E0809339
:101CB000520261E0E0CF80E580935102109252021F
:101CC000DACF81E5F1CF82E5EFCF0F931F93CF936A
:101CD000DF93EB010E948B228B010E94F10D8F3F5D
:101CE00069F00E948B22601B710B6C177D07A8F3B3
:101CF00080E0DF91CF911F910F91089581E0F9CF9E
:101D00008F929F92AF92BF92FF920F931F93CF93A8
:101D1000DF93EC01F62E49015A010E941B0ECE0101
:101D20000E94050E6CE271E0CE010E94650E8F2DBF
:101D300080640E94EA0D08E110E0D501C401002E84
:101D400004C0B695A795979587950A94D2F70E94F7
:101D5000EA0D08501109083F8FEF180771F785E960
:101D6000FF2021F088E0F8120DC087E80E94EA0DFC
:101D700010E00E94F10D8A8787FF06C01F3F21F007
:101D80001F5FF7CF8FEFF2CFDF91CF911F910F91B0
:101D9000FF90BF90AF909F908F9008958F929F92E9
:101DA000AF92BF92EF92FF920F931F93CF93DF9367
:101DB000EC01E62E1B8619861E821D824C830E9432
:101DC0008B228B0161E08C810E94802361E08C81F9
:101DD0000E94BC230E940B2282E580935102109244
:101DE000520280915102909152020E94D00D2AE03D
:101DF000F22E8FEF0E94EA0DFA94F110FACF809143
:101E00001E0581110E94C30DCE010E94050E20E027
:101E100030E0A90160E0CE010E94800EF82E8A8792
:101E200081E0F816C1F00E948B22601B710B613DAE
:101E3000774068F381E08D83CE010E94F40D80E04D
:101E4000DF91CF911F910F91FF90EF90BF90AF90D6
:101E50009F908F9008952AEA31E040E050E068E0DA
:101E6000CE010E94800E82FF25C0FB868B85812CCF
:101E7000912C5401823029F4812C912CA12C80E4E6
:101E8000B82E20E030E0A90167E3CE010E94800E69
:101E9000A501940169E2CE010E94800E8A87882301
:101EA000C1F00E948B22601B710B613D774048F3AB
:101EB00088E0C1CF94E0F92E0E94F10D8A87FA9450
:101EC000F110FACF8A3A11F082E0B5CF82E08B8729
:101ED000CDCF8B858230C1F420E030E0A9016AE3E8
:101EE000CE010E94800E882311F086E0A4CF0E94CC
:101EF000F10D807C803C11F483E08B870E94F10D12
:101F00000E94F10D0E94F10DCE010E94F40D6E2D84
:101F1000CE01DF91CF911F910F91FF90EF90BF9075
:101F2000AF909F908F900C94350E0F931F93CF938B
:101F3000DF93EC010E948B228B010E94F10D8A87B6
:101F40008F3F91F40E948B22601B710B6D327140A8
:101F5000A0F38FE08D83CE010E94F40D80E0DF912D
:101F6000CF911F910F9108958E3F11F08DE0F2CF28
:101F700081E0F5CFCF92DF92EF92FF920F931F9304
:101F8000CF93DF93EC016901C801820F931F813069
:101F9000924048F58E81882371F088819981AA81C9
:101FA000BB8184179507A607B70729F48F81988509
:101FB000C816D90670F5488359836A837B838B855D
:101FC000833039F089E0440F551F661F771F8A95CB
:101FD000D1F79A01AB0161E1CE010E94800E882306
:101FE00079F083E08D83CE010E94F40D80E0DF91D3
:101FF000CF911F910F91FF90EF90DF90CF900895B8
:10200000CE010E94950F882371F318861F8281E00C
:102010008E838F8198858C159D0560F06701E00E99
:10202000F11EEC14FD0471F00E94F10DF601819394
:102030006F01F7CF0E94F10D8F81988501969887E7
:102040008F83E7CF8F819885080F191F18870F831B
:102050008985882319F00115124018F0CE010E94DD
:102060001B0E81E0C4CFEF92FF920F931F930115D7
:10207000110539F00E94BA0F1F910F91FF90EF9058
:10208000089581E0F9CFEF92FF920F931F937901AA
:1020900000E012E030E020E00E94BA0F1F910F91A3
:1020A000FF90EF900895EF92FF920F931F93CF93BD
:1020B000DF938C01862F7A010E94EA0DE7018EEFF3
:1020C000F81A89910E94EA0DCE15DF05D1F78FEF3E
:1020D0000E94EA0D8FEF0E94EA0D0E94F10DF801B7
:1020E00082878F71853069F081E18583C8010E9404
:1020F000F40D80E0DF91CF911F910F91FF90EF9051
:10210000089581E0F7CFEF92FF920F93CF93DF9383
:10211000EC01790182E1411551056105710599F0E4
:102120008B85833039F089E0440F551F661F771F78
:102130008A95D1F79A01AB0168E1CE010E94800E29
:10214000882339F084E08D83CE010E94F40D80E075
:1021500025C0A7016EEFCE010E9453108823A1F382
:102160000023C1F068E572E0CE010E94650E811186
:1021700002C085E1E8CF20E030E0A9016DE0CE01AA
:102180000E94800E882311F084E1DDCF0E94F10DC2
:102190008111FACFCE010E94F40D81E0DF91CF9141
:1021A0000F91FF90EF9008951F93CF93DF93EC0171
:1021B0000E94050E0E94F10D182FCE010E94F40D11
:1021C00081E01F3F09F480E0DF91CF911F910895D6
:1021D000E1E5F2E080E5808311820895CF93DF93FB
:1021E000EC019C012A5F3F4F41E050E060E070E06D
:1021F0008B8D9C8D0E94C31A8823B9F08F89988D8E
:10220000A98DBA8D892B8A2B8B2B59F48C814E8109
:102210005F81688579854F8B588F698F7A8F806849
:102220008C838C8180628C8381E0DF91CF910895D3
:102230008F929F92AF92BF92CF92DF92EF92FF92D6
:10224000CF93DF93EC010E94EE1081110CC080E06F
:10225000DF91CF91FF90EF90DF90CF90BF90AF9044
:102260009F908F900895EB8DFC8DCE80DF80E88469
:10227000F98482E0C81AD108E108F108858504C014
:10228000CC0CDD1CEE1CFF1C8A95D2F78685978549
:10229000A089B189C80ED91EEA1EFB1E84814601A1
:1022A0005701880E911CA11CB11C8C149D04AE0416
:1022B000BF0461F081E0881A9108A108B108C50146
:1022C000B4010E9410198111F0CFC1CFEB8DFC8DAC
:1022D000258580E092E0A0E0B0E004C0880F991F5F
:1022E000AA1FBB1F2A95D2F74B895C896D897E890D
:1022F000840F951FA61FB71F8B8B9C8BAD8BBE8B3E
:1023000081E0A6CFCF93DF93EC01462F6E857F85CA
:10231000888999890E94D418882351F08A8920E2FB
:10232000829FC0011124845A9D4FDF91CF9108955F
:1023300090E080E0FACFFB019B01255F3F4F40E238
:1023400041932E173F07E1F7DC0120E037E09D9134
:10235000492F992319F19E3229F43A3059F028E097
:102360003AE0F5CFE6E8F1E08491882329F0319650
:102370009813FACF80E017C03217A8F05FED590F1D
:102380005E3588F48FE9890F8A3110F440EE490FE9
:10239000FB01E20FF11D40832F5FD9CF81E0FB01EC
:1023A0009081903239F308950F931F93CF93DF9369
:1023B000FC012581222331F080E0DF91CF911F9134
:1023C0000F9108958B01EC01FB018789803139F56C
:1023D00082E08D831F8A188E198E1A8E808D918DC2
:1023E000B0E0A0E025E0880F991FAA1FBB1F2A9527
:1023F000D1F78B8B9C8BAD8BBE8B1C8F0B8F81E0B1
:102400008C831E821F82188619861A861B861C865C
:102410001D861E861F86188A198A1A8ACECF803298
:1024200059F683E08D83428D538D648D758D4F8B6E
:10243000588F698F7A8F9E012D5E3F4FC8010E9491
:10244000B6198111DACFB8CF2F923F924F925F9297
:102450006F927F928F929F92AF92BF92CF92DF92B4
:10246000EF92FF920F931F93CF93DF93EC015B01E9
:102470002A018D81811115C08FEF9FEFDF91CF91E0
:102480001F910F91FF90EF90DF90CF90BF90AF9092
:102490009F908F907F906F905F904F903F902F9084
:1024A00008958C8180FFE8CF0B891C892D893E8996
:1024B0004A855B856C857D85C201B0E0A0E068013E
:1024C0007901C41AD50AE60AF70AC816D906EA0637
:1024D000FB0618F42801441A550A42011E0126E0A1
:1024E000220E311C8114910409F4B3C04A855B8526
:1024F0006C857D856A0181E0D8228B8D9C8D8A0157
:102500009B01E9E03695279517950795EA95D1F750
:10251000ED81E230E1F5FC01628D738D848D958D46
:10252000600F711F821F931F612C22E0722E6C18A6
:102530007D088614970408F434012C8126FD04C01C
:102540006114F2E07F0671F4009107011091080117
:102550002091090130910A0106171707280739074A
:1025600009F053C040E00E94D418882309F484CFB6
:10257000C601845A9D4FD5019C01260D371DFC01D3
:102580002E173F0709F460C041914D93F9CFFC012C
:1025900074807A947022C114D10471F471100CC04B
:1025A000452B462B472B39F58F89988DA98DBA8DF0
:1025B0008E839F83A887B987EB8DFC8D6E817F8189
:1025C000888599856250710981099109258504C022
:1025D000660F771F881F991F2A95D2F706851785E2
:1025E00020893189600F711F821F931F670D711D34
:1025F000811D911D99CF4E815F81688579859101FB
:102600000E9435198111D8CF37CF7501830196010A
:10261000AB01BC0180915A0290915B020E94331081
:10262000882309F429CFA60CB71C8A859B85AC8525
:10263000BD85860D971DA11DB11D8A879B87AC871F
:10264000BD87861897084ECF281B390BA20EB31EE4
:10265000ECCFC20113CFFF920F931F93CF93DF9361
:102660001F92CDB7DEB7FC0125812230C8F08C0166
:10267000428553856485758585E076956795579580
:1026800047958A95D1F7F42FFF70FF2E41E050E077
:10269000BE016F5F7F4FC8010E942412019719F09D
:1026A00090E080E012C0F80182859385A485B5850D
:1026B0004F96A11DB11D82879387A487B587F0E24D
:1026C000FF9EC0011124845A9D4F0F90DF91CF913E
:1026D0001F910F91FF9008958F929F92AF92BF929A
:1026E000CF92DF92EF92FF920F931F93CF93DF93DE
:1026F000EC018D8181110EC080E0DF91CF911F919F
:102700000F91FF90EF90DF90CF90BF90AF909F9090
:102710008F9008950B891C892D893E890417150710
:102720002607370748F34A015B01823031F48A8675
:102730009B86AC86BD8681E0E0CF81149104A10424
:10274000B10449F41E821F82188619861A861B86D8
:102750001C861D86F0CF0A851B852C853D85EB8D5B
:10276000FC8D858590E00996B901A8014150510979
:1027700061097109082E04C07695679557954795AC
:102780000A94D2F775016401E1E0CE1AD108E1089C
:10279000F10804C0F694E794D794C7948A95D2F7C9
:1027A000C416D506E606F70620F0012B022B032BF4
:1027B00011F58F89988DA98DBA8D8E839F83A887F7
:1027C000B9878E010A5F1F4FC114D104E104F104DF
:1027D00009F4ADCF4E815F816885798598018B8D35
:1027E0009C8D0E94351991E0C91AD108E108F108C1
:1027F0008111EACF81CFC41AD50AE60AF70AE1CFE0
:10280000FF920F931F93CF93DF93FC012581222327
:1028100009F444C0F62EEC01848187FF32C061E0E8
:10282000CF010E9482118C01892BC1F18D818230F0
:1028300048F48B899C89AD89BE89F801848F958F76
:10284000A68FB78F8F89988DF801938F828F8F898C
:10285000988DA98DBA8DB58BA48BE0915302F09120
:102860005402309759F0B8016A5E7F4FC80148960C
:102870000995F801808D918D938B828B8C818F7758
:102880008C83F11003C08C818F7E8C838F2DDF9120
:10289000CF911F910F91FF900C94AA1880E0DF91C7
:1028A000CF911F910F91FF900895CF93DF93EC018B
:1028B00061E00E940014882311F01D8281E0DF9105
:1028C000CF9108954F925F926F927F928F929F92D5
:1028D000AF92BF92EF92FF920F931F93CF93DF932C
:1028E00000D000D0CDB7DEB7FC0185818130A1F0EA
:1028F00080E00F900F900F900F90DF91CF911F917C
:102900000F91FF90EF90BF90AF909F908F907F902E
:102910006F905F904F900895848181FFE9CF838904
:102920009489A589B68984179507A607B70700F388
:10293000892B8A2B8B2B09F478C04A015B017F011C
:102940004284538464847584CF010E946C1388236D
:1029500079F2F701838D948D81149104A104B1045F
:1029600051F54789508D618D728D0E94CE1B882351
:1029700009F4BECFF701178A108E118E128EF7015F
:10298000838A948AA58AB68A84818068848361E078
:10299000C7010E940014882309F4AACFB501A4013D
:1029A000441655066606770610F4B301A201C70166
:1029B0000E946C139ECF46815781608571859E0170
:1029C0002F5F3F4F0E943519882309F491CFF701FB
:1029D000838D948D49815A816B817C81FC0127898B
:1029E0002031F1F408EF1FEF20E030E040175107ED
:1029F0006207730720F60E94CE1B882309F478CF64
:102A0000F70146815781608571850FEF1FEF2FEF2A
:102A10003FE0838D948D0E94211A8111B0CF68CF41
:102A200008EF1FEF2FEF3FE0E1CF81E062CFCF92C1
:102A3000DF92EF92FF921F93CF93DF93EC0180E23E
:102A4000689FF0011124E45AFD4F9385917161F064
:102A5000842F827449F080E0DF91CF911F91FF9025
:102A6000EF90DF90CF900895142F6A8B809107012B
:102A700090910801A0910901B0910A018E879F876A
:102A8000A88BB98BC488D588F12CE12C7601DD2484
:102A9000CC24CF8AD88EE98EFA8E828D938DB0E0C9
:102AA000A0E0AC01BD014C295D296E297F294F8B27
:102AB000588F698F7A8F8385887129F5848D958DDC
:102AC000A68DB78D8B8B9C8BAD8BBE8B81E08D8360
:102AD000812F8F708C831E821F82188619861A861A
:102AE0001B861C861D8681E016FFB6CF40E050E0B5
:102AF000BA01CE01DF91CF911F91FF90EF90DF904F
:102B0000CF900C946214803109F0A5CF9E012D5E08
:102B10003F4F8B8D9C8D0E94B619882309F49BCF63
:102B200084E0D5CFBF92CF92DF92EF92FF920F93C6
:102B30001F93CF93DF93CDB7DEB72B970FB6F894E3
:102B4000DEBF0FBECDBFFC01358131110BC0C22EDF
:102B50008B017C01BE016F5F7F4FCA010E949B11F8
:102B6000811102C080E0A2C0F801838D948DF7012D
:102B7000948F838FF8011682178210861186128631
:102B8000138614861586B12CF80182859385A48559
:102B9000B585438954896589768984179507A60781
:102BA000B70788F525E0B695A795979587952A9557
:102BB000D1F7F82FFF70DF2EC8010E942B1300976A
:102BC00089F2FC012081222341F0253E09F05AC000
:102BD000BB2029F0BB24B394D7CFB1100EC0F701AE
:102BE000D28A4091070150910801609109017091CA
:102BF0000A0146875787608B718BFC0180818111A8
:102C0000E9CFBB24B3948C2D8271823109F0AACF15
:102C1000BB2009F45BC061E0C7010E9482118C01F6
:102C2000892B09F49FCF80E2F80111928A95E9F788
:102C30008BE0FE013196D80101900D928A95E1F763
:102C4000E0915302F0915402309709F44FC0B8015B
:102C5000625F7F4FC80140960995F801808991898C
:102C6000938B828B918F808F86859785978B868BB0
:102C700081E00E94AA18882309F474CF4C2DF70133
:102C8000628911C04BE050E0BC01CE0101960E9468
:102C9000902D892B09F078CF8C2D80734C2D6D2DC4
:102CA000803309F45FCFC7010E9417152B960FB62A
:102CB000F894DEBF0FBECDBFDF91CF911F910F9172
:102CC000FF90EF90DF90CF90BF900895F80185813D
:102CD000823009F447CFC8010E941811882309F4F3
:102CE00041CFF701128A0CE512E09DCF81E298E214
:102CF000F801918B808B80E098E097878687ADCF35
:102D00002F923F924F925F926F927F928F929F92FB
:102D1000AF92BF92CF92DF92EF92FF920F931F93E9
:102D2000CF93DF9300D000D01F92CDB7DEB77C01E8
:102D30006B011A01DC0115968C911597813009F011
:102D4000CAC014961C9111FFC6C012FDB0C041014B
:102D500012951F70109511701D83D7011A960D9151
:102D60001D912D913C911D978114910409F426C168
:102D70005B968D919C915C97FC0174807A94B9016B
:102D8000A80129E076956795579547952A95D1F73B
:102D900074221170711020C001151105E9F4169606
:102DA0004D915D916D917C9119974115510561058A
:102DB000710509F099C057968D919D910D90BC9128
:102DC000A02D0097A105B10509F0B0C0C7010E9470
:102DD000EE10882309F47FC080E092E0801B910B05
:102DE00054018815990508F45C01D7015B964D9153
:102DF0005C915C9716968D919D910D90BC91A02D44
:102E00000297A109B109FA01258504C0880F991F0D
:102E1000AA1FBB1F2A95D2F74685578560897189FD
:102E2000840F951FA61FB71F9C01AD01270D311DF3
:102E3000411D511D29013A01A11432E0B30609F0E8
:102E40007BC08091070190910801A0910901B09188
:102E50000A0184159505A605B70559F48FEF9FEF74
:102E6000DC018093070190930801A0930901B093BE
:102E70000A010D819601B301A20180915A0290913D
:102E80005B020E948310882331F19EEFD91A8A18C1
:102E90009B08F70182859385A485B5858A0D9B1DC6
:102EA000A11DB11D82879387A487B58756CFF701EF
:102EB000438954896589768982859385A485B585FA
:102EC000481759076A077B0709F441CFC7010E94D9
:102ED0006C1381113CCF81E090E0D70113969C9355
:102EE0008E93129780E007C09E012F5F3F4F0E9494
:102EF0003519811102C090E07BC089819A81AB8134
:102F0000BC81F701238D348DF901278948EF5FEFEC
:102F100060E070E0203121F048EF5FEF6FEF7FE07D
:102F200084179507A607B70708F050CFF7018683E7
:102F30009783A087B18750CF0115110591F5D7016F
:102F40001A964D915D916D917C911D9753968D913F
:102F50009D910D90BC91A02D481759076A077B07DA
:102F600000F181E00E94AA18882309F4B4CF4092AE
:102F70000701509208016092090170920A01809144
:102F80005902816080935902045A1D4FD601C8012D
:102F90008A0D9B1DF8018E179F0759F02D912193E3
:102FA000FACF41E0C301B2010E94D4188111ECCFE5
:102FB00092CF801B910BC80ED91E69CF14968C91AD
:102FC000149753964D915D916D917C915697401752
:102FD00051076207730720F5F701038B148B258BCC
:102FE000368B80688483F701848183FD26C0C1010C
:102FF0000F900F900F900F900F90DF91CF911F9136
:103000000F91FF90EF90DF90CF90BF90AF909F9087
:103010008F907F906F905F904F903F902F9008958A
:103020002091530230915402232BE9F221143104F0
:10303000D1F2806814968C93D6CF61E0C7010E94CC
:103040000014882309F447CFD2CFCF93DF931F9288
:10305000CDB7DEB7698341E050E0BE016F5F7F4FBF
:103060000E9480160F90DF91CF910895CF93DF9348
:10307000EC018D81813029F090E080E0DF91CF91EB
:1030800008958C8181FFF8CF82FD13C080915A0290
:1030900090915B020E94D4108111EECF8C8185FF4C
:1030A0001BC060E0CE010E9400148C818F7D8C8358
:1030B000E3CF4B895C896D897E898A859B85AC8548
:1030C000BD8584179507A607B70701F3CE010E94B7
:1030D0006C138111DBCFD0CF409155025091560235
:1030E0006091570270915802452B462B472B21F0D7
:1030F00080E00E948618C0CF80618C832A853B8542
:10310000317080E092E0821B930BB8CF0F93409117
:103110005502509156026091570270915802411524
:1031200051056105710599F0082F2CE532E0809179
:103130005A0290915B020E948310882349F01092FA
:10314000550210925602109257021092580281E0D6
:103150000F9108950F93CF9390915902911102C04E
:1031600081E015C0C82F409107015091080160917E
:10317000090170910A01082F2CE532E080915A0272
:1031800090915B020E948310811104C080E0CF9176
:103190000F910895CC2321F38C2F0E948618882349
:1031A000A9F310925902DCCFCF92DF92EF92FF92F7
:1031B000CF936B017C01C42F80910701909108018E
:1031C000A0910901B0910A018C159D05AE05BF05BE
:1031D00001F181E00E94AA18811107C080E0CF911F
:1031E000FF90EF90DF90CF9008952CE532E0B7018B
:1031F000A60180915A0290915B020E94431088239D
:1032000069F3C0920701D0920801E0920901F0929F
:103210000A01409159024C2B4093590281E0DFCFC3
:10322000CF92DF92EF92FF926B017C0181E00E94CE
:10323000AA188823A9F0ECE5F2E0119284E0EC35BD
:10324000F807D9F7C0920701D0920801E09209016E
:10325000F0920A018091590281608093590281E0C5
:10326000FF90EF90DF90CF9008958F929F92AF9252
:10327000BF92CF92DF92EF92FF920F931F93CF9363
:10328000DF93FC0181859285A385B4850196A11DFC
:10329000B11D84179507A607B70770F480E0DF918A
:1032A000CF911F910F91FF90EF90DF90CF90BF9043
:1032B000AF909F908F90089583889488A588B68852
:1032C0008789803189F5BB27A72F962F852FE901A4
:1032D0006A017B018F01BC01CD01680D791D8A1D3A
:1032E0009B1D8090070190900801A0900901B0906B
:1032F0000A0186169706A806B90601F5F80187891E
:10330000803111F5DD24EE24FF24F601EE0FFF1FBE
:10331000E45AFD4F80819181B0E0A0E088839983D9
:10332000AA83BB8381E0BBCFDB01CA01C7E0B695AE
:10333000A79597958795CA95D1F7C9CF40E00E9488
:10334000D4188111DBCFAACFE894C7F8DD24EE248E
:10335000FF24F601EE0FFF1FEE0FFF1FE45AFD4F93
:1033600080819181A281B381BF70D8CF4F925F924B
:103370006F927F92AF92BF92CF92DF92EF92FF92C5
:103380000F931F93CF93DF9300D000D0CDB7DEB75C
:103390008C0149835A836B837C835901C12CD12CC6
:1033A0007601412C82E0582E612C712C49815A8182
:1033B0006B817C819E012F5F3F4FC8010E943519B0
:1033C000882339F1F8018585A301920104C0220FF9
:1033D000331F441F551F8A95D2F7DA01C901C80E61
:1033E000D91EEA1EFB1E49815A816B817C81878927
:1033F000803111F188EF9FEFAFEFBFE04817590719
:103400006A077B0798F2F501C082D182E282F382DB
:1034100081E00F900F900F900F90DF91CF911F914F
:103420000F91FF90EF90DF90CF90BF90AF907F9083
:103430006F905F904F90089588EF9FEFA0E0B0E00D
:10344000DDCF4F925F926F927F928F929F92AF9259
:10345000BF92CF92DF92EF92FF920F931F93CF9381
:10346000DF93EC01423051056105710590F480E075
:10347000DF91CF911F910F91FF90EF90DF90CF9050
:10348000BF90AF909F908F907F906F905F904F9084
:10349000089589859A85AB85BC850196A11DB11DCE
:1034A00084179507A607B70710F3CB88DC88ED884B
:1034B000FE888F89803109F042C0BB27A72F962F45
:1034C000852F480159012A013B01C80ED91EEA1E69
:1034D000FB1E8091070190910801A0910901B09114
:1034E0000A01C816D906EA06FB0699F58F898031CC
:1034F000C1F5B301A201552766277727440F551F51
:10350000445A5D4FFA019182808280915902816014
:10351000809359028A89823080F08D819E81AF81AB
:10352000B8858C0D9D1DAE1DBF1D809355029093D7
:103530005602A0935702B093580281E099CFDB0165
:10354000CA01E7E0B695A79597958795EA95D1F7D3
:10355000B8CF40E0C701B6010E94D4188111C6CF90
:1035600086CFB301A2014F77552766277727440FEF
:10357000551F440F551F445A5D4FFA0180829182B6
:10358000A282B382C2CF2F923F924F925F926F92EC
:103590007F928F929F92AF92BF92CF92DF92EF92E3
:1035A000FF920F931F93CF93DF93CDB7DEB72F9783
:1035B0000FB6F894DEBF0FBECDBF3C0148875987D8
:1035C0006A877B873F832E83D901CD90DD90ED9074
:1035D000FC90C114D104E104F10439F0BFEFCB1A1F
:1035E000DB0AEB0AFB0A1D8210C0FC01C080D180FF
:1035F000E280F380F1E0FD83088519852A853B850B
:10360000013011052105310571F7F301818592859E
:10361000A385B4858C019D010F5F1F4F2F4F3F4F36
:103620000C871D872E873F8746015701212C312C9F
:103630002101F30181859285A385B4852816390679
:103640004A065B0608F044C00C851D852E853F8523
:10365000081519052A053B0550F482E0882E912CA7
:10366000A12CB12C92E0C92ED12CE12CF12C9E0181
:103670002F5F3F4FB501A401C3010E943519882374
:1036800039F1D501C4010196A11DB11D49815A81AD
:103690006B817C81452B462B472BA9F5AC01BD01E5
:1036A0004C195D096E097F09088519852A853B85B6
:1036B000401751076207730741F50FEF1FEF2FEF18
:1036C0003FE0B501A401C3010E94211A811125C068
:1036D0001D828D812F960FB6F894DEBF0FBECDBF31
:1036E000DF91CF911F910F91FF90EF90DF90CF90DE
:1036F000BF90AF909F908F907F906F905F904F9012
:103700003F902F9008956C017D011FEF211A310A1F
:10371000410A510A4C015D018CCFC814D904EA0456
:10372000FB0488F41401250121E0221A3108410824
:10373000510895018401B201A101C3010E94211A1F
:1037400052014101C3CFAE81BF814D915D916D9119
:103750007C91411551056105710561F4EE81FF8190
:10376000C082D182E282F382FD81F1110BC001E0BF
:103770000D83AFCF97018601C3010E94211A8111E9
:10378000EDCFA6CF1FEFC11AD10AE10AF10AD3018A
:10379000CD92DD92ED92FC9213979BCFAF92BF92A8
:1037A000CF92DF92EF92FF920F931F93CF93DF930D
:1037B00000D000D0CDB7DEB75C016A017B0182E0AA
:1037C00090E0A0E0B0E0F50180839183A283B38311
:1037D0009E012F5F3F4FB701A601C5010E94351919
:1037E000882381F100E010E09801B701A601C5012E
:1037F0000E94211A882331F1C980DA80EB80FC8095
:10380000F50187898031C9F088EF9FEFAFEFBFE006
:10381000C816D906EA06FB06D8F281E00F900F9091
:103820000F900F90DF91CF911F910F91FF90EF902C
:10383000DF90CF90BF90AF90089588EF9FEFA0E00A
:10384000B0E0E6CF80E0EACF8F929F92AF92BF9236
:10385000CF92DF92EF92FF920F931F93CF93DF935C
:10386000EC01142F70935B0260935A02442309F415
:1038700078C0453070F080E0DF91CF911F910F91BB
:10388000FF90EF90DF90CF90BF90AF909F908F9080
:10389000089540E060E070E0CB010E94D4188823D6
:1038A00051F3812F8150990BAC0164E0440F551FF7
:1038B0006A95E1F7445A5D4FFA01E254FE4F808168
:1038C0008F77C9F63C9680819181A281B38184363D
:1038D0009105A105B10578F24A535E4FFA01C08007
:1038E000D180E280F380C114D104E104F10419F223
:1038F00040E0C701B6010E94D418882309F4BBCF69
:1039000080916702909168028115924009F0B3CFCF
:1039100090916C02992309F4AECF20916A02309104
:103920006B02232B09F4A7CF80916902882309F445
:10393000A2CF9A8B8C831D8690E041E050E02D85CC
:10394000E22FBA01022E02C0660F771F0A94E2F737
:103950008617970751F031E0320F3D87283078F312
:103960008ACFC12CD12C7601C3CF20917202309125
:10397000730250E040E02115310541F420918002AE
:103980003091810240918202509183022D833E83C7
:103990004F83588780916A0290916B0246015701CC
:1039A000880E991EA11CB11C8B8A9C8AAD8ABE8A86
:1039B00000916D0210916E02198F088FA0916C0218
:1039C000B0E00E94522BDC01CB01880D991DAA1D8D
:1039D000BB1D8A8F9B8FAC8FBD8F25E0000F111F01
:1039E0002A95E1F701501E4F012F11270695800FF0
:1039F000911FA11DB11D8E879F87A88BB98B009148
:103A00006F021091700230E020E00115110541F4C1
:103A100000917C0210917D0220917E0230917F0204
:103A2000C81AD90AEA0AFB0AC00ED11EE21EF31E0A
:103A300004C0F694E794D794C794EA95D2F7C98660
:103A4000DA86EB86FC868CE025EFC2162FE0D206E4
:103A5000E104F10440F085EFC8168FEFD806E104C9
:103A6000F10420F480E18F8B81E006CF8091880201
:103A700090918902A0918A02B0918B028A8F9B8FCC
:103A8000AC8FBD8F80E2EFCF80918C0490918D043C
:103A9000891B990B089590918D0480918C042FEFD0
:103AA0003FEF981748F4E92FF0E0E257FB4F2081F1
:103AB00030E09F5F90938D04C9010895E0918D04DB
:103AC00080918C04E81730F4F0E0E257FB4F8081DE
:103AD00090E008958FEF9FEF08950895CF93DF93BF
:103AE0001F92CDB7DEB76983209168042223F9F0D5
:103AF00020916904203258F021E030E0FC0133834A
:103B0000228390E080E00F90DF91CF910895809123
:103B10006A04E82FF0E0E559FB4F998190838F5FAD
:103B200080936A048093690481E090E0ECCF61E0C7
:103B3000CE0101960E94401FF7CFCF92DF92EF9205
:103B4000FF920F931F93CF93DF937C01CB018A01E8
:103B500020916804222389F0EB016B01C40ED51E6D
:103B6000CC15DD0569F06991D701ED91FC910190CB
:103B7000F081E02DC7010995F3CF642F0E94401F0B
:103B8000C801DF91CF911F910F91FF90EF90DF90CF
:103B9000CF90089510928D0410928C0410926A04B4
:103BA000109269040C94831E9A01AB0160E074E2E8
:103BB00084EF90E00E94272B2051310941095109DF
:103BC00056954795379527952093B800089581E03D
:103BD0008093680460938B0410926A0410926904C5
:103BE00008950C94E71D0F93062F21E0409169047E
:103BF0006BE674E080918B040E94E91E10926A04C7
:103C000010926904109268040F9108954F925F9288
:103C10006F927F92AF92BF92CF92EF92FF920F93EB
:103C20001F93CF93DF935C01F62ED42F2801390127
:103C3000EE2019F10E94E71DCE2DC43008F0C3E03C
:103C4000C150B8F028E0C29FC0011124A301920125
:103C500004C056954795379527958A95D2F7B901AF
:103C6000D501ED91FC910190F081E02DC501099500
:103C7000E7CF60E0C5010E94F31D4D2FD13208F05F
:103C800040E22C2D6EE874E08F2D0E94A11E109250
:103C90008D0480938C04DF91CF911F910F91FF9041
:103CA000EF90CF90BF90AF907F906F905F904F90CC
:103CB0000895CF92EF920F931F93C22EE12C00E054
:103CC00010E098010E94061E1F910F91EF90CF9077
:103CD000089521E00C94591E21E00C94591E61E0D6
:103CE0000C94F31DECE5F4E01382128288EE93E06D
:103CF000A0E0B0E084839583A683B7838CEC91E049
:103D000091838083089510921B0581E080931905AB
:103D10001092180561E081E10E94BC2361E080E11E
:103D20000E94BC23E9EBF0E080818E7F808380815C
:103D30008D7F808388E48093B80085E48093BC0005
:103D40000895413208F043C090911B059111FCCFBA
:103D500091E090931B05209319052FEF2093AE045B
:103D60001092F304240F2093F20490931A0590917B
:103D70001A05880F892B80931A05809118058130C8
:103D800009F51092180580911A058093BB00809167
:103D9000BC0083FDF8CF85EC8093BC0080911B05AF
:103DA0008130E1F38091F304841710F44091F3041F
:103DB000A4EFB4E0962FFB018E2F891B841720F00F
:103DC000842F089585EEE8CF8D918193F5CF40E063
:103DD000F7CF0F93413208F04BC090911B05911122
:103DE000FCCF92E090931B05009319059FEF9093F1
:103DF000AE041092F3044093F204362FA4EFB4E023
:103E0000FB019E2F931B941770F110921A0590914D
:103E10001A05880F892B80931A0580911805813027
:103E200029F51092180580911A058093BB008091A6
:103E3000BC0083FDF8CF85EC8093BC00222321F0E9
:103E400080911B058230D1F38091AE048F3F91F0B9
:103E50008091AE04803281F08091AE04803371F0A5
:103E600084E00F91089591919D93CBCF85EEE4CF9F
:103E700081E0F7CF80E0F5CF82E0F3CF83E0F1CFB0
:103E8000613298F420911B05243089F46093D004AA
:103E9000282FA2EDB4E0FC018E2F821B861710F0B4
:103EA00080E0089581918D93F7CF81E0089582E0BD
:103EB000089585ED8093BC008091BC0084FDFCCF0B
:103EC00010921B05089585EC8093BC0010921B0591
:103ED00008951F920F920FB60F9211240BB60F92F6
:103EE0002F933F934F935F936F937F938F939F9302
:103EF000AF93BF93EF93FF938091B900887F803693
:103F000009F44EC008F041C0883209F4AAC028F56F
:103F1000803109F49EC0C8F4882309F4FBC08830BE
:103F200009F497C0FF91EF91BF91AF919F918F914D
:103F30007F916F915F914F913F912F910F900BBEA9
:103F40000F900FBE0F901F901895883109F489C00B
:103F5000803241F78093AE0415C0803409F49EC0CE
:103F600048F48033B9F38833E9F68093AE040E94B5
:103F7000631FD8CF803509F485C0883509F496C011
:103F8000883481F60E94591FCDCF883909F48CC03E
:103F900038F5883729F050F4883611F0803711F65B
:103FA00083E080931B051092AF0457C0883809F452
:103FB0007BC0803919F0803809F0B4CF8091AF040C
:103FC000803208F071C0E091AF0481E08E0F8093E1
:103FD000AF048091BB00F0E0E055FB4F80833DC013
:103FE000803B39F0E0F4803A09F479C0883A09F06E
:103FF00099CF84E080931B051092D1041092D004D5
:10400000E0911605F091170509958091D004811172
:104010000FC081E08093D0041092D20409C0803C8C
:1040200009F476C0883C09F473C0883B09F07ACF64
:10403000E091D10481E08E0F8093D104F0E0EE5244
:10404000FB4F80818093BB009091D1048091D0047C
:1040500029C080911A058093BB0085EC8093BC0039
:1040600061CF9091F3048091F204981758F5E09194
:10407000F30481E08E0F8093F304F0E0EC50FB4FEB
:104080008081E9CFE091F30481E08E0F8093F30407
:104090008091BB00F0E0EC50FB4F80839091F304E3
:1040A0008091F2049817C8F285E8D8CFE091F30424
:1040B00081E08E0F8093F3048091BB00F0E0EC5020
:1040C000FB4F80838091190581115CCF81E0809343
:1040D000180584EA8093BC0010921B0523CF0E9430
:1040E000631F8091AF04803230F4E091AF04F0E0C0
:1040F000E055FB4F10826091AF0470E0E091140531
:10410000F091150580EB94E009951092AF040ACF69
:1041100085ECE0CF1092AE0435CF08951F93CF9376
:10412000DF93EC01162F60E670E0888199810E9490
:10413000F11D88819981DC01ED91FC910190F08164
:10414000E02D612F099560E0888199810E94F31D1F
:1041500041E060E6888199810E94691E8881998189
:10416000DC01ED91FC910680F781E02D0995DF914E
:10417000CF911F9108950F931F93CF93DF93EC017D
:10418000062F142F60E670E0888199810E94F11D4E
:1041900088819981DC01ED91FC910190F081E02D05
:1041A000602F099588819981DC01ED91FC91019046
:1041B000F081E02D612F099560E088819981DF9180
:1041C000CF911F910F910C94F31DCF93DF93EC01CE
:1041D000CB01798368830E94CA1D6CE0CE010E94E6
:1041E0008E20843C09F544E066E2CE010E94BB20AB
:1041F0006AE070E080E090E00E94BC2266E2CE01BE
:104200000E948E2082FDF4CF88EB8B8348EB66E220
:10421000CE010E94BB2047E063E1CE010E94BB209B
:1042200081E0DF91CF91089580E0FBCFCF92DF92C4
:10423000EF92FF92CF93DF93EC0166E2CE010E94F2
:104240008E2081FF07C06AE070E080E090E00E946D
:10425000BC22F3CF4B814F774B8366E2CE010E94A5
:10426000BB204B8142604B8366E2CE010E94BB20A3
:10427000F12CF2FC0CC060E0CE010E948E20F82EE2
:104280006AE070E080E090E00E94BC22F2CF60E63D
:1042900070E0888199810E94F11D61E070E0888161
:1042A00099810E943D0160E0888199810E94F31DFF
:1042B00043E060E6888199810E94691E8881998126
:1042C000DC01ED91FC910680F781E02D09956C01F0
:1042D000990FEE08FF08FE2CED2CDC2CCC248881F5
:1042E0009981DC01ED91FC910680F781E02D099523
:1042F000092E000CAA0BBB0BC82AD92AEA2AFB2AD2
:10430000FE2CED2CDC2CCC2488819981DC01ED91F4
:10431000FC910680F781E02D0995092E000CAA0B6F
:10432000BB0BBC01CD016C297D298E299F2924E07E
:1043300096958795779567952A95D1F70E942C2AAF
:1043400020E030E040E85EE30E94BA2ADF91CF919E
:10435000FF90EF90DF90CF9008950F931F93CF932E
:10436000DF93EC014B8142604B8366E20E94BB20ED
:1043700010E011FD0CC060E0CE010E948E20182FCD
:104380006AE070E080E090E00E94BC22F2CF60E63C
:1043900070E0888199810E94F11D64E070E088815D
:1043A00099810E943D0160E0888199810E94F31DFE
:1043B00042E060E6888199810E94691E8881998126
:1043C000DC01ED91FC910680F781E02D099500E07C
:1043D000182F88819981DC01ED91FC910680F7818D
:1043E000E02D0995B801682B792B84E075956795C8
:1043F0008A95E1F7072E000C880B990B0E942E2A54
:1044000020E030E040E85DE30E94BA2ADF91CF91DE
:104410001F910F910895CF93CFB7F89480911F0506
:10442000811127C0EAEDF1E08491EAEBF1E094918B
:10443000E82FF0E0EE0FFF1FE65FFD4FA591B4916E
:10444000EC91E92321F461E084E00E94BC2361E067
:1044500084E00E9480238CB580618CBD8CB5806423
:104460008CBD61E087E00E94802361E085E00E94CE
:10447000802380911F058F5F80931F05CFBFCF9151
:1044800008951F920F920FB60F9211242F933F930E
:104490008F939F93AF93BF938091210590912205B5
:1044A000A0912305B09124053091200523E0230F2E
:1044B0002D3758F50196A11DB11D2093200580933D
:1044C000210590932205A0932305B09324058091A4
:1044D000250590912605A0912705B0912805019604
:1044E000A11DB11D8093250590932605A093270556
:1044F000B0932805BF91AF919F918F913F912F91DC
:104500000F900FBE0F901F90189526E8230F02966C
:10451000A11DB11DD2CF2FB7F894609121057091E4
:10452000220580912305909124052FBF08953FB760
:10453000F8948091250590912605A0912705B091CA
:10454000280526B5A89B05C02F3F19F00196A11D8F
:10455000B11D3FBFBA2FA92F982F8827BC01CD01CD
:10456000620F711D811D911D42E0660F771F881F2C
:10457000991F4A95D1F708958F929F92AF92BF925B
:10458000CF92DF92EF92FF926B017C010E94972203
:104590004B015C01C114D104E104F104E9F00E9473
:1045A0004C290E949722681979098A099B09683E5B
:1045B00073408105910570F321E0C21AD108E1082A
:1045C000F10888EE880E83E0981EA11CB11CC1146E
:1045D000D104E104F10429F7FF90EF90DF90CF9030
:1045E000BF90AF909F908F9008958230910538F0E2
:1045F000880F991F880F991F05970197F1F7089564
:10460000789484B5826084BD84B5816084BD85B5AD
:10461000826085BD85B5816085BDEEE6F0E0808174
:1046200081608083E1E8F0E0108280818260808395
:10463000808181608083E0E8F0E080818160808318
:10464000E1EBF0E0808184608083E0EBF0E080814A
:1046500081608083E1E9F0E08081826080838081F5
:1046600081608083E0E9F0E0808181608083EAE717
:10467000F0E080818460808380818260808380819B
:10468000816080838081806880831092C10008955A
:1046900082508A3080F5E82FF0E0EF5AFC4D0C9400
:1046A000492B652369235B2361237B237B236C23B5
:1046B000722376237C23809180008F778093800003
:1046C0000895809180008F7DF9CF84B58F7784BD68
:1046D000089584B58F7DFBCF8091B0008F77809354
:1046E000B00008958091B0008F7DF9CF8091900047
:1046F0008F77809390000895809190008F7DF9CFFF
:10470000CF93DF9390E0FC01EA54FE4F24918A524C
:104710009E4FFC0184918823C9F090E0880F991F77
:10472000FC01E65FFD4FA591B491FC01E050FE4F06
:10473000C591D49161110DC09FB7F8948C912095CB
:1047400082238C938881282328839FBFDF91CF9178
:104750000895623051F49FB7F8943C91822F809570
:1047600083238C93E8812E2BEFCF8FB7F894EC91B5
:104770002E2B2C938FBFEACF1F93CF93DF93282F3D
:1047800030E0F901EA56FE4F8491F901EA54FE4FF8
:10479000D491F901EA52FE4FC491CC23A9F0162F0F
:1047A00081110E944823EC2FF0E0EE0FFF1FE05034
:1047B000FE4FA591B4918FB7F894EC91111108C0F8
:1047C000D095DE23DC938FBFDF91CF911F910895A9
:1047D000DE2BF8CFCF93DF93282F30E0F901EA5694
:1047E000FE4F8491F901EA54FE4FD491F901EA5247
:1047F000FE4FC491CC23A1F081110E944823EC2FDD
:10480000F0E0EE0FFF1FEA50FE4FA591B491EC913E
:10481000ED2381E090E009F480E0DF91CF910895ED
:1048200080E090E0FACFFC01918D228D892F90E0FD
:10483000805C9F4F821B91098F7399270895FC011B
:10484000918D828D981731F0828DE80FF11D858D45
:1048500090E008958FEF9FEF0895FC01918D828D78
:10486000981761F0A28DAE0FBF2FB11D5D968C9190
:10487000928D9F5F9F73928F90E008958FEF9FEFCF
:10488000089586EA95E2892B49F080E090E0892B33
:1048900029F00E94A62581110E9400008DE396E276
:1048A000892B49F080E090E0892B29F00E943D2679
:1048B00081110C9400000895FC01A48DA80FB92F5C
:1048C000B11DA35ABF4F2C91848D90E001968F7338
:1048D0009927848FA689B7892C93A089B1898C9157
:1048E00080648C93938D848D981306C00288F3891D
:1048F000E02D80818F7D80830895CF93DF93EC013D
:10490000888D8823B9F0AA89BB89E889F9898C91B7
:1049100085FD03C0808186FD0DC00FB607FCF7CF73
:104920008C9185FFF2CF808185FFEDCFCE010E9473
:104930005C24E9CFDF91CF910895EF92FF920F931E
:104940001F93CF93DF93EC0181E0888F9B8D8C8D3B
:10495000981316C0E889F989808185FF11C0EE8916
:10496000FF896083E889F98980818064808381E0A0
:1049700090E0DF91CF911F910F91FF90EF900895FC
:10498000F62E0B8D10E00F5F1F4F0F731127E02ED7
:104990008C8D8E110CC00FB607FCFACFE889F9890F
:1049A000808185FFF5CFCE010E945C24F1CFEB8D95
:1049B000EC0FFD2FF11DE35AFF4FF0820B8FEA89B8
:1049C000FB8980818062D2CFCF92DF92EF92FF92FB
:1049D0001F93CF93DF93EC016A017B01122FE889CB
:1049E000F98982E08083C11481EED806E104F104E4
:1049F000A1F060E079E08DE390E0A70196010E94CC
:104A0000272B215031094109510956954795379572
:104A10002795211580E1380798F0E889F9891082F7
:104A200060E874E88EE190E0A70196010E94272BD0
:104A300021503109410951095695479537952795D8
:104A4000EC85FD853083EE85FF852083188EEC890B
:104A5000FD891083EA89FB89808180618083EA89EE
:104A6000FB89808188608083EA89FB8980818068F6
:104A70008083EA89FB8980818F7D8083DF91CF915C
:104A80001F91FF90EF90DF90CF9008951F920F92AB
:104A90000FB60F9211240BB60F922F938F939F9303
:104AA000EF93FF93E0913905F0913A058081E09111
:104AB0003F05F091400582FD1DC090818091420527
:104AC0008F5F8F7320914305821741F0E09142057B
:104AD000F0E0E75DFA4F958F80934205FF91EF91EB
:104AE0009F918F912F910F900BBE0F900FBE0F9043
:104AF0001F9018958081F2CF1F920F920FB60F92E0
:104B000011240BB60F922F933F934F935F936F93A4
:104B10007F938F939F93AF93BF93EF93FF9389E21C
:104B200095E00E945C24FF91EF91BF91AF919F911E
:104B30008F917F916F915F914F913F912F910F9046
:104B40000BBE0F900FBE0F901F90189589E295E055
:104B50000E94132421E0892B09F420E0822F08957C
:104B6000E9E2F5E01382128288EE93E0A0E0B0E083
:104B700084839583A683B7838CED91E091838083B2
:104B800085EC90E09587848784EC90E09787868712
:104B900080EC90E0918B808B81EC90E0938B828B0A
:104BA00082EC90E0958B848B86EC90E0978B868BE3
:104BB000118E128E138E148E08951F920F920FB6BF
:104BC0000F9211240BB60F922F938F939F93EF9315
:104BD000FF93E091D605F091D7058081E091DC0547
:104BE000F091DD0582FD1DC090818091DF058F5F12
:104BF0008F732091E005821741F0E091DF05F0E02E
:104C0000EA53FA4F958F8093DF05FF91EF919F91C3
:104C10008F912F910F900BBE0F900FBE0F901F9092
:104C200018958081F2CF1F920F920FB60F92112428
:104C30000BB60F922F933F934F935F936F937F9396
:104C40008F939F93AF93BF93EF93FF9386EC95E081
:104C50000E945C24FF91EF91BF91AF919F918F9142
:104C60007F916F915F914F913F912F910F900BBE6C
:104C70000F900FBE0F901F90189586EC95E00E9444
:104C8000132421E0892B09F420E0822F0895E6EC1B
:104C9000F5E01382128288EE93E0A0E0B0E0848316
:104CA0009583A683B7838CED91E0918380838DEC0F
:104CB00090E0958784878CEC90E09787868788ECD6
:104CC00090E0918B808B89EC90E0938B828B8AECC7
:104CD00090E0958B848B8EEC90E0978B868B118E79
:104CE000128E138E148E0895AF92BF92CF92DF92E0
:104CF000EF92FF920F931F93CF93DF936C017B0191
:104D00008B01040F151FEB015E01AE18BF08C01721
:104D1000D10759F06991D601ED91FC910190F08194
:104D2000E02DC6010995892B79F7C501DF91CF9157
:104D30001F910F91FF90EF90DF90CF90BF90AF90B9
:104D40000895FB0101900020E9F73197AF01461B60
:104D5000570BDC01ED91FC910280F381E02D099469
:104D6000DB0114964D915C9115976D917C91DC015E
:104D7000ED91FC910280F381E02D099468EE71E0E1
:104D80000C94A1260F931F93CF93DF93EC010E9405
:104D9000B0268C01CE010E94BE26800F911FDF91AC
:104DA000CF911F910F9108950F931F93CF93DF938E
:104DB0008C01D0E0C0E06115710519F00E94A126B8
:104DC000EC01C8010E94BE268C0F9D1FDF91CF9180
:104DD0001F910F910895FC01808191810C94262CE4
:104DE000CF93DF93EC0188819981009711F00E94A5
:104DF000262C198218821D821C821B821A82DF9146
:104E0000CF9108950F931F93CF93DF93EC018B0104
:104E10006F5F7F4F888199810E94AF2C009751F07E
:104E2000998388831B830A8381E0DF91CF911F914F
:104E30000F91089580E0F9CFCF93DF93EC01888143
:104E40009981892B49F08A819B818617970720F0E9
:104E500081E0DF91CF910895CE010E94022788233F
:104E6000C1F38C819D81892B99F7E881F9811082AA
:104E7000EFCFEF92FF920F931F93CF93DF93EC014D
:104E80007B018A01BA010E941C2781110BC0CE014F
:104E90000E94F026CE01DF91CF911F910F91FF90DC
:104EA000EF9008951D830C83B701888199810E943A
:104EB000B12DF0CFFC011182108213821282158273
:104EC00014826115710551F0FB0101900020E9F792
:104ED0003197AF01461B570B0C9439270895FB01FE
:104EE00001900020E9F73197AF01461B570B0C9456
:104EF00039270F931F93CF93DF93CDB7DEB7299751
:104F00000FB6F894DEBF0FBECDBF8C01862FF8011F
:104F100011821082138212821582148250E0BE0127
:104F20006F5F7F4F90E00E940A2EBE016F5F7F4F40
:104F3000C8010E946F2729960FB6F894DEBF0FBEF6
:104F4000CDBFDF91CF911F910F9108950F931F93C4
:104F5000CF93DF93CDB7DEB762970FB6F894DEBF7D
:104F60000FBECDBF8C01CB01F801118210821382DC
:104F700012821582148250E0BE016F5F7F4F0E9443
:104F8000C72DBE016F5F7F4FC8010E946F276296D9
:104F90000FB6F894DEBF0FBECDBFDF91CF911F914A
:104FA0000F9108950F931F93CF93DF93CDB7DEB783
:104FB00061970FB6F894DEBF0FBECDBF8C01CB0159
:104FC000F80111821082138212821582148250E03D
:104FD000BE016F5F7F4F0E940A2EBE016F5F7F4F41
:104FE000C8010E946F2761960FB6F894DEBF0FBE0E
:104FF000CDBFDF91CF911F910F9108950F931F9314
:10500000CF93DF93CDB7DEB7A1970FB6F894DEBF8D
:105010000FBECDBF8C01CB01BA01F8011182108205
:10502000138212821582148230E0AE014F5F5F4F0F
:105030000E94DD2DBE016F5F7F4FC8010E946F2768
:10504000A1960FB6F894DEBF0FBECDBFDF91CF9112
:105050001F910F910895CF93DF93EC01FB01861709
:10506000970749F0608171816115710541F04481B4
:1050700055810E943927CE01DF91CF9108950E947A
:10508000F026F9CFFC011182108213821282158260
:1050900014820C942B28CF93DF93EC0161157105DA
:1050A00031F00E946F27CE01DF91CF9108950E94C9
:1050B000F026F9CFEF92FF920F931F93CF93DF93D8
:1050C000CDB7DEB7A1970FB6F894DEBF0FBECDBF48
:1050D0007C01CB01BA01F701118210821382128286
:1050E0001582148242E0420F8E010F5F1F4F0E9413
:1050F0006C2BBC01C7010E944B28A1960FB6F894F7
:10510000DEBF0FBECDBFDF91CF911F910F91FF90FA
:10511000EF900895EF92FF920F931F93CF93DF9339
:10512000CDB7DEB7A1970FB6F894DEBF0FBECDBFE7
:105130007C01CB01BA01F701118210821382128225
:105140001582148242E0420F8E010F5F1F4F0E94B2
:105150006C2BBC01C7010E944B28A1960FB6F89496
:10516000DEBF0FBECDBFDF91CF911F910F91FF909A
:10517000EF900895EF92FF920F931F93CF93DF93D9
:105180006115710541F480E0DF91CF911F910F917E
:10519000FF90EF90089541155105B1F07B01EC01AE
:1051A0000C811D81040F151FB8010E941C27882344
:1051B00051F3288139818C819D81B701820F931F22
:1051C0000E94B12D1D830C8381E0DECFFB01448161
:1051D0005581608171810C94BA286115710551F077
:1051E000FB0101900020E9F73197AF01461B570BF7
:1051F0000C94BA2880E00895CF93DF9300D0CDB708
:10520000DEB769831A8241E050E0BE016F5F7F4FD5
:105210000E94BA280F900F90DF91CF910895CF93FD
:10522000DF93EC01FB0144815581608171810E9413
:10523000BA28811103C0CE010E94F026CE01DF9171
:10524000CF910895CF93DF93EC016115710539F487
:10525000CE010E94F026CE01DF91CF910895FB018F
:1052600001900020E9F73197AF01461B570B0E94D0
:10527000BA28882369F3EFCF08950E9400230E9483
:105280003C290E947C02C1E4D4E20E948004209761
:10529000E1F30E944124F9CF08955058BB27AA2773
:1052A0000E9465290C94802A0E94722A38F00E947C
:1052B000792A20F039F49F3F19F426F40C946F2AD0
:1052C0000EF4E095E7FB0C94692AE92F0E94912ADD
:1052D00058F3BA17620773078407950720F079F42B
:1052E000A6F50C94B32A0EF4E0950B2EBA2FA02D40
:1052F0000B01B90190010C01CA01A0011124FF2783
:10530000591B99F0593F50F4503E68F11A16F0407D
:10531000A22F232F342F4427585FF3CF469537957C
:105320002795A795F0405395C9F77EF41F16BA0B41
:10533000620B730B840BBAF09150A1F0FF0FBB1FEF
:10534000661F771F881FC2F70EC0BA0F621F731F38
:10535000841F48F4879577956795B795F7959E3F95
:1053600008F0B0CF9395880F08F09927EE0F979526
:10537000879508950E94CE290C94802A0E94792A4C
:1053800058F00E94722A40F029F45F3F29F00C94F3
:10539000692A51110C94B42A0C946F2A0E94912A04
:1053A00068F39923B1F3552391F3951B550BBB2754
:1053B000AA2762177307840738F09F5F5F4F220F99
:1053C000331F441FAA1FA9F335D00E2E3AF0E0E890
:1053D00032D091505040E695001CCAF72BD0FE2FDA
:1053E00029D0660F771F881FBB1F2617370748076E
:1053F000AB07B0E809F0BB0B802DBF01FF27935826
:105400005F4F3AF09E3F510578F00C94692A0C9456
:10541000B42A5F3FE4F3983ED4F386957795679579
:10542000B795F7959F5FC9F7880F911D969587955A
:1054300097F90895E1E0660F771F881FBB1F621779
:1054400073078407BA0720F0621B730B840BBA0B37
:10545000EE1F88F7E0950895E89409C097FB3EF4A5
:1054600090958095709561957F4F8F4F9F4F9923B1
:10547000A9F0F92F96E9BB279395F695879577952F
:105480006795B795F111F8CFFAF4BB0F11F460FFEF
:105490001BC06F5F7F4F8F4F9F4F16C0882311F047
:1054A00096E911C0772321F09EE8872F762F05C05B
:1054B000662371F096E8862F70E060E02AF09A95F6
:1054C000660F771F881FDAF7880F9695879597F9EB
:1054D000089597F99F6780E870E060E008959FEF76
:1054E00080EC089500240A9416161706180609067B
:1054F000089500240A94121613061406050608954A
:10550000092E0394000C11F4882352F0BB0F40F4D1
:10551000BF2B11F460FF04C06F5F7F4F8F4F9F4F11
:10552000089557FD9058440F551F59F05F3F71F093
:105530004795880F97FB991F61F09F3F79F08795FA
:105540000895121613061406551FF2CF4695F1DF83
:1055500008C0161617061806991FF1CF8695710513
:10556000610508940895E894BB2766277727CB0147
:1055700097F908950E94CD2A0C94802A0E94722ADD
:1055800038F00E94792A20F0952311F00C94692AB2
:105590000C946F2A11240C94B42A0E94912A70F35F
:1055A000959FC1F3950F50E0551F629FF001729FC8
:1055B000BB27F00DB11D639FAA27F00DB11DAA1FD7
:1055C000649F6627B00DA11D661F829F2227B00D24
:1055D000A11D621F739FB00DA11D621F839FA00DAF
:1055E000611D221F749F3327A00D611D231F849FFF
:1055F000600D211D822F762F6A2F11249F57504056
:105600009AF0F1F088234AF0EE0FFF1FBB1F661FD0
:10561000771F881F91505040A9F79E3F510580F099
:105620000C94692A0C94B42A5F3FE4F3983ED4F3B7
:10563000869577956795B795F795E7959F5FC1F73D
:10564000FE2B880F911D9695879597F90895A1E2F5
:105650001A2EAA1BBB1BFD010DC0AA1FBB1FEE1FEC
:10566000FF1FA217B307E407F50720F0A21BB30B37
:10567000E40BF50B661F771F881F991F1A9469F7B3
:1056800060957095809590959B01AC01BD01CF010F
:105690000895EE0FFF1F0024001C0BBE0790F6912B
:1056A000E02D09940E945D2BA59F900DB49F900D55
:1056B000A49F800D911D11240895A29FB001B39F56
:1056C000C001A39F700D811D1124911DB29F700D0B
:1056D000811D1124911D0895EF920F931F93CF9375
:1056E000DF93E80134E047FD34E1042E000C550B54
:1056F00057FF03C0519541955109E32E022F242FE6
:10570000AE010E942F2ECE01DF91CF911F910F91FC
:10571000EF9008950F931F93CF93DF9382309105FD
:1057200010F482E090E0E0916506F091660630E0CA
:1057300020E0B0E0A0E0309799F42115310509F49C
:105740004AC0281B390B24303105D8F58A819B814A
:105750006115710589F1FB0193838283FE0111C0FC
:10576000408151810281138148175907E0F04817A1
:10577000590799F4109761F012960C9312971396AB
:105780001C933296CF01DF91CF911F910F91089515
:105790000093650610936606F4CF2115310551F08C
:1057A0004217530738F0A901DB019A01BD01DF015F
:1057B000F801C1CFEF01F9CF90936606809365069B
:1057C000CDCFFE01E20FF31F819391932250310957
:1057D00039832883D7CF2091630630916406232B29
:1057E00041F420910201309103013093640620932B
:1057F000630620910001309101012115310541F42A
:105800002DB73EB74091040150910501241B350B83
:10581000E0916306F0916406E217F307A0F42E1BF3
:105820003F0B2817390778F0AC014E5F5F4F241704
:10583000350748F04E0F5F1F509364064093630690
:10584000819391939FCFF0E0E0E09CCFCF93DF93E3
:105850000097E9F0FC01329713821282A09165064D
:10586000B0916606ED0130E020E01097A1F42081B0
:105870003181820F931F20916306309164062817AF
:10588000390709F061C0F0936406E0936306DF9185
:10589000CF910895EA01CE17DF07E8F54A815B81D1
:1058A0009E0141155105B1F7E901FB83EA83499156
:1058B0005991C40FD51FEC17FD0761F480819181C8
:1058C0000296840F951FE9019983888382819381D1
:1058D0009B838A83F0E0E0E012968D919C91139770
:1058E0000097B9F52D913C911197CD010296820F49
:1058F000931F20916306309164062817390739F603
:10590000309751F51092660610926506B0936406C2
:10591000A0936306BCCFD383C28340815181840F9F
:10592000951FC817D90761F44E5F5F4F8881998131
:10593000480F591F518340838A819B8193838283BF
:105940002115310509F0B0CFF0936606E0936506A6
:105950009ECFFD01DC01C0CF13821282D7CF4F92C0
:105960005F926F927F928F929F92AF92BF92CF92EF
:10597000DF92EF92FF920F931F93CF93DF938C01EF
:10598000009799F4CB01DF91CF911F910F91FF9078
:10599000EF90DF90CF90BF90AF909F908F907F90CF
:1059A0006F905F904F900C948A2BFC01E60FF71FCD
:1059B0009C0122503109E217F30708F4AEC0D90167
:1059C000CD91DC911197C617D70720F1C530D105CD
:1059D00078F0CE0104978617970750F0C61BD70BB7
:1059E0002297C193D1936D937C93CF010E94262C73
:1059F000C801DF91CF911F910F91FF90EF90DF9041
:105A0000CF90BF90AF909F908F907F906F905F905E
:105A10004F9008955B01AC1ABD0A4C018C0E9D1E7F
:105A2000A0916506B0916606512C412CF12CE12C19
:105A3000109731F580916306909164068815990559
:105A400009F05CC04616570608F058C08091000166
:105A500090910101009741F48DB79EB740910401E8
:105A600050910501841B950BE817F90708F055C004
:105A7000F0936406E0936306F90171836083B8CF05
:105A80008D919C91119712966C90129713967C9021
:105A90001397A815B90559F56C0142E0C40ED11C45
:105AA000CA14DB0420F1AC014A195B09DA01129631
:105AB000159780F06282738251834083D9016D9380
:105AC0007C93E114F10471F0D7011396FC93EE93EB
:105AD00012978ECF22968C0F9D1FF90191838083A0
